:100000000C9434000C946B000C9451000C9451002F
:100010000C9451000C9451000C9451000C9451001C
:100020000C9451000C9451000C9451000C9451000C
:100030000C9451000C9451000C9468040C945100E1
:100040000C9451000C9451000C940C030C9451002E
:100050000C9451000C9451000C9451000C945100DC
:100060000C9451000C94510011241FBECFEFD8E026
:10007000DEBFCDBF13E0A0E0B1E0EEEFFAE002C0DA
:1000800005900D92AE3CB107D9F724E0AEECB3E099
:1000900001C01D92A23CB207E1F70E944D010C94F1
:1000A0007D050C940000259A569A52985A9AE9E6D2
:1000B000F0E0808181608083E89A0895F89410923E
:1000C0001D041092DC0310921E041092DD031092A6
:1000D000DB03789408951F920F920FB60F921124AC
:1000E0000F931F932F933F934F935F936F937F9340
:1000F0008F939F93AF93BF93CF93EF93FF93C9B128
:100100008C2F8470C2FBCC27C0F9909100019C1702
:10011000B1F0811128C00E940E05462F572FBC0157
:100120004093D7035093D8036093D9037093DA03B5
:1001300081E08093D2032D9A5E9AC0930001FF91D3
:10014000EF91CF91BF91AF919F918F917F916F91DF
:100150005F914F913F912F911F910F910F900FBE83
:100160000F901F9018958091D203811531F30E9452
:100170000E05462F572FBC014093D3035093D40351
:100180006093D5037093D6036091D3037091D40329
:100190008091D5039091D6030091D7031091D80395
:1001A0002091D9033091DA03601B710B820B930B02
:1001B0000E94B4021092D2032D985E98BECF0F9386
:1001C0001F930E940E05462F572FBC018091CE032E
:1001D0009091CF03A091D003B091D1030097A105D6
:1001E000B10599F18A019B01081B190B2A0B3B0BE6
:1001F000D901C8018B319440A105B10530F180913E
:10020000DC038115D1F0E091DC03E150FF0BE352F8
:10021000FC4F8081803289F0E091DC0381E08E0F19
:100220008093DC03F0E0E352FC4F80E28083E091B6
:10023000DC03F0E0E352FC4F10821092CE031092E8
:10024000CF031092D0031092D1038091D203811179
:1002500019C08091CE039091CF03A091D003B091AB
:10026000D1030097A105B105A9F08A019B01081BE4
:10027000190B2A0B3B0BD901C8018D329140A10506
:10028000B10540F04093CE035093CF036093D00369
:100290007093D1031F910F9108950E94FA020E945A
:1002A000FE030E9455040E94530078940E94FB03B1
:1002B00081E091E00E94490460E081E00E94F30344
:1002C00083E191E00E94490480E291E00E943E03B4
:1002D0008FE391E00E943E03D1E00E946503811507
:1002E00009F449C00E944A03C82F8F7D853489F4E0
:1002F00010925E0466E081E00E94F30386E691E0DE
:100300000E9449048FE691E00E943E030E945E0035
:1003100032C0843469F4D0935E0466E081E00E94C8
:10032000F30389E891E00E94490482E991E0ECCF6F
:1003300080915E0481114BC0C03208F448C0CF37B1
:10034000D0F480911D048F33B0F4E0911D0481E05E
:100350008E0F80931D04F0E0E25EFB4FC083E091BE
:100360001D04F0E0E25EFB4F10828C2F0E943703E9
:100370008C2F0E9487028091DB03811501F180910F
:100380005E048130E1F40E94FB0384EC91E00E9462
:10039000490460E081E00E94F3038DED93E00E9448
:1003A00049048EEC91E00E943E038DED93E00E94A3
:1003B0003E0383E691E00E943E031092DB038091AE
:1003C0005E04813009F089CF0E94DF0086CFCD30F6
:1003D00011F0CA3081F680915E048111CCCF8091FA
:1003E0001D04811541F28CEA91E00E943E038EE1EA
:1003F00094E00E943E0383E691E00E943E030E9447
:1004000097020E94FB038DEB91E00E9449048EE16C
:1004100094E00E9449047ACF90E00E946C05382F46
:1004200020E059E0529FC0011124FC01E152FE4F2F
:100430004081411103C080E090E00895431303C060
:1004400080529E4F08952F5FEDCFFF920F931F9321
:10045000CF93DF93182F092FD0E089E0F82EFD9E6F
:10046000C0011124FC01E152FE4FC081C11108C03E
:10047000CFE38C2FDF91CF911F910F91FF900895C3
:10048000612F702F80529E4F0E947405892B89F333
:10049000DF5FE5CF2D9A5E9A86E990E00E9419050C
:1004A0002D985E9808952D9A5E9A82EC91E00E94B4
:1004B00019052D985E9808952D985E980C9419054D
:1004C000EF92FF921F93CF93DF93EC0110E07E0138
:1004D000E10EF11CF7018081811106C0DF91CF91FF
:1004E0001F91FF90EF9008958E3261F40E944A02AE
:1004F000F7018181811521F086E990E00E945C027C
:100500001F5FE5CF8D32A1F70E945302F1CF8032F9
:1005100021F48AE194E00C945C020E940C020097A2
:1005200029F00E94600282EC91E0F5CF089588EDF9
:1005300091E00E9460028AE194E00C945C02909148
:100540006304973080F4E091630491E09E0F9093F0
:100550006304F0E0EC59FB4F8083E0916304F0E02A
:10056000EC59FB4F108208956C3271408105910562
:1005700088F48EE20E949F020E940E05462F572F9C
:10058000BC0140935F0450936004609361047093D6
:10059000620408958DE2EECF80916304811549F1E4
:1005A00084E694E00E9425028F33A1F09091DC0351
:1005B0009F3380F4E091DC0391E09E0F9093DC0385
:1005C000F0E0E352FC4F8083E091DC03F0E0E35283
:1005D000FC4F108268ED71E084E694E00E9474059F
:1005E000892B19F481E08093DB031092630410924D
:1005F000640408951092C50087E68093C40088E9DA
:100600008093C10086E08093C20010926E04109225
:100610006D0410926C0408951F920F920FB60F9202
:1006200011248F939F93EF93FF938091C600909135
:100630006C04903498F4E0916E04F0E0E159FB4FC3
:10064000808380916E0490E001968F739927809348
:100650006E0480916C048F5F80936C04FF91EF9126
:100660009F918F910F900FBE0F901F9018959091B2
:10067000C00095FFFCCF8093C6000895CF93DF9311
:10068000EC018991811103C0DF91CF9108950E94FF
:100690003703F7CFF89480916C048115A1F0E091B5
:1006A0006D04F0E0E159FB4F808120916D0430E052
:1006B0002F5F3F4F2F73332720936D0490916C046D
:1006C000915090936C0478940895F89490916C04F0
:1006D000789481E0911101C080E008950F931F93F9
:1006E000CF93DF9300D000D0CDB7DEB768EE73E0D4
:1006F0000E9458058C01CB010E9419051C830B83B5
:100700008B819C81880F991F880F991F9A838983F9
:1007100089819A819C01215031093A832983892B4F
:1007200049F40F900F900F900F90DF91CF911F9190
:100730000F9108950000ECCFCF93DF9300D0CDB799
:10074000DEB7883E23E09207B0F4880F991F880F28
:10075000991F9A83898389819A819C01215031094B
:100760003A832983892B29F40F900F90DF91CF9141
:1007700008950000F0CF0F900F90DF91CF910C946F
:100780006E035D9A81E090E00E949C035D9881E099
:1007900090E00C949C039BB1977E9BB998B1937F9A
:1007A00098B980FD5C9A81FD5B9A82FD429A83FD37
:1007B000439A0C94C103CF93C82F5F9882958F7092
:1007C0000E94CB038C2F8F700E94CB03C150C2308C
:1007D00028F480ED97E0CF910C946E0382E390E0D3
:1007E000CF910C949C03811104C06058862F0C9407
:1007F000DB036054FBCF81E00C94DB038AB1886B90
:100800008AB987B18C6087B98BB187748BB988B18D
:10081000837F88B980E593EC0E946E0383E00E9499
:10082000CB0384E991E10E946E0383E00E94CB0335
:1008300084E991E10E946E0383E00E94CB0386E984
:1008400090E00E949C0382E00E94CB0386E990E046
:100850000E949C0388E20E94DB0388E00E94DB0385
:1008600081E00E94DB0386E00E94DB038CE00C94B5
:10087000DB03CF93C82F5F9A82958F700E94CB03C2
:100880008C2F8F700E94CB0382E390E0CF910C9469
:100890009C03CF93DF93EC018991811103C0DF9119
:1008A000CF9108950E943904F7CF82E084BD93E090
:1008B00095BD99EF97BD80936E001092BE04109283
:1008C000BF041092C0041092C1041092B70408959E
:1008D0001F920F920FB60F9211242F933F934F93B5
:1008E0005F936F937F938F939F93AF93BF93EF9398
:1008F000FF938091BE049091BF04A091C004B09179
:10090000C1040196A11DB11D8093BE049093BF0444
:10091000A093C004B093C1048091B5049091B60433
:10092000892BC1F18091AF049091B004892B91F192
:100930008091BE049091BF04A091C004B091C10405
:100940004091B1045091B2046091B3047091B40429
:100950002091AF043091B004841B950BA60BB70B0C
:1009600082179307A105B105A8F0E091B504F091B5
:10097000B60409958091BE049091BF04A091C00473
:10098000B091C1048093B1049093B204A093B304D6
:10099000B093B40480915F0490916004A0916104CD
:1009A000B09162040097A105B10539F1809163040B
:1009B000811519F18091BE049091BF04A091C004EB
:1009C000B091C10440915F04509160046091610452
:1009D00070916204841B950BA60BB70B8032934079
:1009E000A105B10550F00E94CC0210925F04109254
:1009F00060041092610410926204FF91EF91BF9124
:100A0000AF919F918F917F916F915F914F913F91A6
:100A10002F910F900FBE0F901F901895F894609132
:100A2000BE047091BF048091C0049091C104789479
:100A300008959C01F8948091BE049091BF04A09108
:100A4000C004B091C1048093BA049093BB04A093F6
:100A5000BC04B093BD043093B9042093B80481E082
:100A60008093B70478948091B704811101C00895F0
:100A70008091BE049091BF04A091C004B091C104C4
:100A80004091BA045091BB046091BC047091BD04C4
:100A90002091B8043091B904841B950BA60BB70BB9
:100AA00082179307A105B105F0F21092B704DBCFCE
:100AB000AA1BBB1B51E107C0AA1FBB1FA617B70784
:100AC00010F0A61BB70B881F991F5A95A9F78095A0
:100AD0009095BC01CD0108959111089581568A51D8
:100AE00008F4805285580895FB01DC018D91019036
:0E0AF00080190110D9F3990B0895F894FFCFE7
:100AFE00014D6F727365205472616E736365697612
:100B0E006572004D6F64653A20454E434F44450073
:100B1E004D6F72736520436F6465205472616E73FE
:100B2E006365697665722052656164790D0A0043CA
:100B3E006F6D6D616E64733A20276527203D2065C9
:100B4E006E636F64652C20276427203D20646563E7
:100B5E006F64650D0A00454E434F444520200053F7
:100B6E007769746368656420746F20454E434F4403
:100B7E0045206D6F64650D0A004445434F44452082
:100B8E002000537769746368656420746F20444550
:100B9E00434F4445206D6F64650D0A000D0A547273
:100BAE00616E736D697474696E673A200053656E79
:100BBE00743A200052656365697665643A0044654F
:100BCE00636F6465643A20002E2D2E2D2E2D00416C
:100BDE002E2D000000000000422D2E2E2E000000B3
:100BEE0000432D2E2D2E00000000442D2E2E000031
:100BFE00000000452E00000000000000462E2E2DA5
:100C0E002E00000000472D2D2E0000000000482E63
:100C1E002E2E2E00000000492E2E00000000000097
:100C2E004A2E2D2D2D000000004B2D2E2D000000E4
:100C3E0000004C2E2D2E2E000000004D2D2D0000FC
:100C4E00000000004E2D2E0000000000004F2D2D44
:100C5E002D0000000000502E2D2D2E000000005102
:100C6E002D2D2E2D00000000522E2D2E00000000E6
:100C7E0000532E2E2E0000000000542D0000000008
:100C8E00000000552E2E2D0000000000562E2E2E98
:100C9E002D00000000572E2D2D0000000000582DB5
:100CAE002E2E2D00000000592D2E2D2D000000009F
:100CBE005A2D2D2E2E00000000302D2D2D2D2D0005
:100CCE000000312E2D2D2D2D000000322E2E2D2D1B
:100CDE002D000000332E2E2E2D2D000000342E2E32
:100CEE002E2E2D000000352E2E2E2E2E000000361C
:100CFE002D2E2E2E2E000000372D2D2E2E2E0000E6
:100D0E0000382D2D2D2E2E000000392D2D2D2D2E9F
:100D1E000000002E2E2D2E2D2E2D00002C2D2D2ED2
:100D2E002E2D2D00003F2E2E2D2D2E2E0000272E87
:100D3E002D2D2D2D2E0000212D2E2D2E2D2D000092
:100D4E002F2D2E2E2D2E000000282D2E2D2D2E0077
:100D5E000000292D2E2D2D2E2D0000262E2D2E2E6F
:100D6E002E0000003A2D2D2D2E2E2E00003B2D2E66
:100D7E002D2E2D2E00003D2D2E2E2E2D0000002B63
:100D8E002E2D2E2D2E0000002D2D2E2E2E2E2D0032
:100D9E00005F2E2E2D2D2E2D0000222E2D2E2E2DCF
:100DAE002E0000242E2E2E2D2E2E2D00402E2D2DDB
:0E0DBE002E2D2E00000000000000000000009E
:00000001FF
